{
  "_format": "hh-sol-artifact-1",
  "contractName": "Hasher",
  "sourceName": "contracts/Hasher.sol",
  "abi": [
    {
      "inputs": [
        {
          "internalType": "uint256[1]",
          "name": "array",
          "type": "uint256[1]"
        }
      ],
      "name": "hash1",
      "outputs": [
        {
          "internalType": "uint256",
          "name": "",
          "type": "uint256"
        }
      ],
      "stateMutability": "pure",
      "type": "function"
    }
  ],
  "bytecode": "0x608060405234801561001057600080fd5b50610402806100206000396000f3fe608060405234801561001057600080fd5b506004361061002b5760003560e01c806332b86d1a14610030575b600080fd5b61004a6004803603810190610045919061026d565b610060565b60405161005791906102a9565b60405180910390f35b600073__$ec6fc5a7b0c501da7862d41e2d8b66d529$__631caab9a7836040518263ffffffff1660e01b8152600401610099919061036f565b602060405180830381865af41580156100b6573d6000803e3d6000fd5b505050506040513d601f19601f820116820180604052508101906100da919061039f565b9050919050565b6000604051905090565b600080fd5b600080fd5b6000601f19601f8301169050919050565b7f4e487b7100000000000000000000000000000000000000000000000000000000600052604160045260246000fd5b61013e826100f5565b810181811067ffffffffffffffff8211171561015d5761015c610106565b5b80604052505050565b60006101706100e1565b905061017c8282610135565b919050565b600067ffffffffffffffff82111561019c5761019b610106565b5b602082029050919050565b600080fd5b6000819050919050565b6101bf816101ac565b81146101ca57600080fd5b50565b6000813590506101dc816101b6565b92915050565b60006101f56101f084610181565b610166565b9050806020840283018581111561020f5761020e6101a7565b5b835b81811015610238578061022488826101cd565b845260208401935050602081019050610211565b5050509392505050565b600082601f830112610257576102566100f0565b5b60016102648482856101e2565b91505092915050565b600060208284031215610283576102826100eb565b5b600061029184828501610242565b91505092915050565b6102a3816101ac565b82525050565b60006020820190506102be600083018461029a565b92915050565b600060019050919050565b600081905092915050565b6000819050919050565b6102ed816101ac565b82525050565b60006102ff83836102e4565b60208301905092915050565b6000602082019050919050565b610321816102c4565b61032b81846102cf565b9250610336826102da565b8060005b8381101561036757815161034e87826102f3565b96506103598361030b565b92505060018101905061033a565b505050505050565b60006020820190506103846000830184610318565b92915050565b600081519050610399816101b6565b92915050565b6000602082840312156103b5576103b46100eb565b5b60006103c38482850161038a565b9150509291505056fea2646970667358221220a819b90585159adf008500905b3ebe7ace6ded81757168659da3ef60eef97ca364736f6c634300080a0033",
  "linkReferences": {
    "contracts/Hasher.sol": {
      "PoseidonT2": [
        {
          "length": 20,
          "start": 132
        }
      ]
    }
  },
  "deployedLinkReferences": {
    "contracts/Hasher.sol": {
      "PoseidonT2": [
        {
          "length": 20,
          "start": 100
        }
      ]
    }
  }
}