{
  "contracts/Hasher.sol": {
    "Hasher": {
      "abi": [
        {
          "inputs": [
            {
              "internalType": "uint256[1]",
              "name": "array",
              "type": "uint256[1]"
            }
          ],
          "name": "hash1",
          "outputs": [
            {
              "internalType": "uint256",
              "name": "",
              "type": "uint256"
            }
          ],
          "stateMutability": "pure",
          "type": "function"
        }
      ],
      "evm": {
        "bytecode": {
          "linkReferences": {
            "contracts/Hasher.sol": {
              "PoseidonT2": [
                {
                  "length": 20,
                  "start": 132
                }
              ]
            }
          },
          "object": "608060405234801561001057600080fd5b50610402806100206000396000f3fe608060405234801561001057600080fd5b506004361061002b5760003560e01c806332b86d1a14610030575b600080fd5b61004a6004803603810190610045919061026d565b610060565b60405161005791906102a9565b60405180910390f35b600073__$ec6fc5a7b0c501da7862d41e2d8b66d529$__631caab9a7836040518263ffffffff1660e01b8152600401610099919061036f565b602060405180830381865af41580156100b6573d6000803e3d6000fd5b505050506040513d601f19601f820116820180604052508101906100da919061039f565b9050919050565b6000604051905090565b600080fd5b600080fd5b6000601f19601f8301169050919050565b7f4e487b7100000000000000000000000000000000000000000000000000000000600052604160045260246000fd5b61013e826100f5565b810181811067ffffffffffffffff8211171561015d5761015c610106565b5b80604052505050565b60006101706100e1565b905061017c8282610135565b919050565b600067ffffffffffffffff82111561019c5761019b610106565b5b602082029050919050565b600080fd5b6000819050919050565b6101bf816101ac565b81146101ca57600080fd5b50565b6000813590506101dc816101b6565b92915050565b60006101f56101f084610181565b610166565b9050806020840283018581111561020f5761020e6101a7565b5b835b81811015610238578061022488826101cd565b845260208401935050602081019050610211565b5050509392505050565b600082601f830112610257576102566100f0565b5b60016102648482856101e2565b91505092915050565b600060208284031215610283576102826100eb565b5b600061029184828501610242565b91505092915050565b6102a3816101ac565b82525050565b60006020820190506102be600083018461029a565b92915050565b600060019050919050565b600081905092915050565b6000819050919050565b6102ed816101ac565b82525050565b60006102ff83836102e4565b60208301905092915050565b6000602082019050919050565b610321816102c4565b61032b81846102cf565b9250610336826102da565b8060005b8381101561036757815161034e87826102f3565b96506103598361030b565b92505060018101905061033a565b505050505050565b60006020820190506103846000830184610318565b92915050565b600081519050610399816101b6565b92915050565b6000602082840312156103b5576103b46100eb565b5b60006103c38482850161038a565b9150509291505056fea2646970667358221220a819b90585159adf008500905b3ebe7ace6ded81757168659da3ef60eef97ca364736f6c634300080a0033",
          "opcodes": "PUSH1 0x80 PUSH1 0x40 MSTORE CALLVALUE DUP1 ISZERO PUSH2 0x10 JUMPI PUSH1 0x0 DUP1 REVERT JUMPDEST POP PUSH2 0x402 DUP1 PUSH2 0x20 PUSH1 0x0 CODECOPY PUSH1 0x0 RETURN INVALID PUSH1 0x80 PUSH1 0x40 MSTORE CALLVALUE DUP1 ISZERO PUSH2 0x10 JUMPI PUSH1 0x0 DUP1 REVERT JUMPDEST POP PUSH1 0x4 CALLDATASIZE LT PUSH2 0x2B JUMPI PUSH1 0x0 CALLDATALOAD PUSH1 0xE0 SHR DUP1 PUSH4 0x32B86D1A EQ PUSH2 0x30 JUMPI JUMPDEST PUSH1 0x0 DUP1 REVERT JUMPDEST PUSH2 0x4A PUSH1 0x4 DUP1 CALLDATASIZE SUB DUP2 ADD SWAP1 PUSH2 0x45 SWAP2 SWAP1 PUSH2 0x26D JUMP JUMPDEST PUSH2 0x60 JUMP JUMPDEST PUSH1 0x40 MLOAD PUSH2 0x57 SWAP2 SWAP1 PUSH2 0x2A9 JUMP JUMPDEST PUSH1 0x40 MLOAD DUP1 SWAP2 SUB SWAP1 RETURN JUMPDEST PUSH1 0x0 PUSH20 0x0 PUSH4 0x1CAAB9A7 DUP4 PUSH1 0x40 MLOAD DUP3 PUSH4 0xFFFFFFFF AND PUSH1 0xE0 SHL DUP2 MSTORE PUSH1 0x4 ADD PUSH2 0x99 SWAP2 SWAP1 PUSH2 0x36F JUMP JUMPDEST PUSH1 0x20 PUSH1 0x40 MLOAD DUP1 DUP4 SUB DUP2 DUP7 GAS DELEGATECALL ISZERO DUP1 ISZERO PUSH2 0xB6 JUMPI RETURNDATASIZE PUSH1 0x0 DUP1 RETURNDATACOPY RETURNDATASIZE PUSH1 0x0 REVERT JUMPDEST POP POP POP POP PUSH1 0x40 MLOAD RETURNDATASIZE PUSH1 0x1F NOT PUSH1 0x1F DUP3 ADD AND DUP3 ADD DUP1 PUSH1 0x40 MSTORE POP DUP2 ADD SWAP1 PUSH2 0xDA SWAP2 SWAP1 PUSH2 0x39F JUMP JUMPDEST SWAP1 POP SWAP2 SWAP1 POP JUMP JUMPDEST PUSH1 0x0 PUSH1 0x40 MLOAD SWAP1 POP SWAP1 JUMP JUMPDEST PUSH1 0x0 DUP1 REVERT JUMPDEST PUSH1 0x0 DUP1 REVERT JUMPDEST PUSH1 0x0 PUSH1 0x1F NOT PUSH1 0x1F DUP4 ADD AND SWAP1 POP SWAP2 SWAP1 POP JUMP JUMPDEST PUSH32 0x4E487B7100000000000000000000000000000000000000000000000000000000 PUSH1 0x0 MSTORE PUSH1 0x41 PUSH1 0x4 MSTORE PUSH1 0x24 PUSH1 0x0 REVERT JUMPDEST PUSH2 0x13E DUP3 PUSH2 0xF5 JUMP JUMPDEST DUP2 ADD DUP2 DUP2 LT PUSH8 0xFFFFFFFFFFFFFFFF DUP3 GT OR ISZERO PUSH2 0x15D JUMPI PUSH2 0x15C PUSH2 0x106 JUMP JUMPDEST JUMPDEST DUP1 PUSH1 0x40 MSTORE POP POP POP JUMP JUMPDEST PUSH1 0x0 PUSH2 0x170 PUSH2 0xE1 JUMP JUMPDEST SWAP1 POP PUSH2 0x17C DUP3 DUP3 PUSH2 0x135 JUMP JUMPDEST SWAP2 SWAP1 POP JUMP JUMPDEST PUSH1 0x0 PUSH8 0xFFFFFFFFFFFFFFFF DUP3 GT ISZERO PUSH2 0x19C JUMPI PUSH2 0x19B PUSH2 0x106 JUMP JUMPDEST JUMPDEST PUSH1 0x20 DUP3 MUL SWAP1 POP SWAP2 SWAP1 POP JUMP JUMPDEST PUSH1 0x0 DUP1 REVERT JUMPDEST PUSH1 0x0 DUP2 SWAP1 POP SWAP2 SWAP1 POP JUMP JUMPDEST PUSH2 0x1BF DUP2 PUSH2 0x1AC JUMP JUMPDEST DUP2 EQ PUSH2 0x1CA JUMPI PUSH1 0x0 DUP1 REVERT JUMPDEST POP JUMP JUMPDEST PUSH1 0x0 DUP2 CALLDATALOAD SWAP1 POP PUSH2 0x1DC DUP2 PUSH2 0x1B6 JUMP JUMPDEST SWAP3 SWAP2 POP POP JUMP JUMPDEST PUSH1 0x0 PUSH2 0x1F5 PUSH2 0x1F0 DUP5 PUSH2 0x181 JUMP JUMPDEST PUSH2 0x166 JUMP JUMPDEST SWAP1 POP DUP1 PUSH1 0x20 DUP5 MUL DUP4 ADD DUP6 DUP2 GT ISZERO PUSH2 0x20F JUMPI PUSH2 0x20E PUSH2 0x1A7 JUMP JUMPDEST JUMPDEST DUP4 JUMPDEST DUP2 DUP2 LT ISZERO PUSH2 0x238 JUMPI DUP1 PUSH2 0x224 DUP9 DUP3 PUSH2 0x1CD JUMP JUMPDEST DUP5 MSTORE PUSH1 0x20 DUP5 ADD SWAP4 POP POP PUSH1 0x20 DUP2 ADD SWAP1 POP PUSH2 0x211 JUMP JUMPDEST POP POP POP SWAP4 SWAP3 POP POP POP JUMP JUMPDEST PUSH1 0x0 DUP3 PUSH1 0x1F DUP4 ADD SLT PUSH2 0x257 JUMPI PUSH2 0x256 PUSH2 0xF0 JUMP JUMPDEST JUMPDEST PUSH1 0x1 PUSH2 0x264 DUP5 DUP3 DUP6 PUSH2 0x1E2 JUMP JUMPDEST SWAP2 POP POP SWAP3 SWAP2 POP POP JUMP JUMPDEST PUSH1 0x0 PUSH1 0x20 DUP3 DUP5 SUB SLT ISZERO PUSH2 0x283 JUMPI PUSH2 0x282 PUSH2 0xEB JUMP JUMPDEST JUMPDEST PUSH1 0x0 PUSH2 0x291 DUP5 DUP3 DUP6 ADD PUSH2 0x242 JUMP JUMPDEST SWAP2 POP POP SWAP3 SWAP2 POP POP JUMP JUMPDEST PUSH2 0x2A3 DUP2 PUSH2 0x1AC JUMP JUMPDEST DUP3 MSTORE POP POP JUMP JUMPDEST PUSH1 0x0 PUSH1 0x20 DUP3 ADD SWAP1 POP PUSH2 0x2BE PUSH1 0x0 DUP4 ADD DUP5 PUSH2 0x29A JUMP JUMPDEST SWAP3 SWAP2 POP POP JUMP JUMPDEST PUSH1 0x0 PUSH1 0x1 SWAP1 POP SWAP2 SWAP1 POP JUMP JUMPDEST PUSH1 0x0 DUP2 SWAP1 POP SWAP3 SWAP2 POP POP JUMP JUMPDEST PUSH1 0x0 DUP2 SWAP1 POP SWAP2 SWAP1 POP JUMP JUMPDEST PUSH2 0x2ED DUP2 PUSH2 0x1AC JUMP JUMPDEST DUP3 MSTORE POP POP JUMP JUMPDEST PUSH1 0x0 PUSH2 0x2FF DUP4 DUP4 PUSH2 0x2E4 JUMP JUMPDEST PUSH1 0x20 DUP4 ADD SWAP1 POP SWAP3 SWAP2 POP POP JUMP JUMPDEST PUSH1 0x0 PUSH1 0x20 DUP3 ADD SWAP1 POP SWAP2 SWAP1 POP JUMP JUMPDEST PUSH2 0x321 DUP2 PUSH2 0x2C4 JUMP JUMPDEST PUSH2 0x32B DUP2 DUP5 PUSH2 0x2CF JUMP JUMPDEST SWAP3 POP PUSH2 0x336 DUP3 PUSH2 0x2DA JUMP JUMPDEST DUP1 PUSH1 0x0 JUMPDEST DUP4 DUP2 LT ISZERO PUSH2 0x367 JUMPI DUP2 MLOAD PUSH2 0x34E DUP8 DUP3 PUSH2 0x2F3 JUMP JUMPDEST SWAP7 POP PUSH2 0x359 DUP4 PUSH2 0x30B JUMP JUMPDEST SWAP3 POP POP PUSH1 0x1 DUP2 ADD SWAP1 POP PUSH2 0x33A JUMP JUMPDEST POP POP POP POP POP POP JUMP JUMPDEST PUSH1 0x0 PUSH1 0x20 DUP3 ADD SWAP1 POP PUSH2 0x384 PUSH1 0x0 DUP4 ADD DUP5 PUSH2 0x318 JUMP JUMPDEST SWAP3 SWAP2 POP POP JUMP JUMPDEST PUSH1 0x0 DUP2 MLOAD SWAP1 POP PUSH2 0x399 DUP2 PUSH2 0x1B6 JUMP JUMPDEST SWAP3 SWAP2 POP POP JUMP JUMPDEST PUSH1 0x0 PUSH1 0x20 DUP3 DUP5 SUB SLT ISZERO PUSH2 0x3B5 JUMPI PUSH2 0x3B4 PUSH2 0xEB JUMP JUMPDEST JUMPDEST PUSH1 0x0 PUSH2 0x3C3 DUP5 DUP3 DUP6 ADD PUSH2 0x38A JUMP JUMPDEST SWAP2 POP POP SWAP3 SWAP2 POP POP JUMP INVALID LOG2 PUSH5 0x6970667358 0x22 SLT KECCAK256 0xA8 NOT 0xB9 SDIV DUP6 ISZERO SWAP11 0xDF STOP DUP6 STOP SWAP1 JUMPDEST RETURNDATACOPY 0xBE PUSH27 0xCE6DED81757168659DA3EF60EEF97CA364736F6C634300080A0033 "
        },
        "methodIdentifiers": {
          "hash1(uint256[1])": "32b86d1a"
        }
      }
    }
  }
}