{
  "contracts/Hasher.sol": {
    "PoseidonT2": {
      "abi": [
        {
          "inputs": [
            {
              "internalType": "uint256[1]",
              "name": "input",
              "type": "uint256[1]"
            }
          ],
          "name": "poseidon",
          "outputs": [
            {
              "internalType": "uint256",
              "name": "",
              "type": "uint256"
            }
          ],
          "stateMutability": "pure",
          "type": "function"
        }
      ],
      "evm": {
        "bytecode": {
          "linkReferences": {},
          "object": "61028a610053600b82828239805160001a607314610046577f4e487b7100000000000000000000000000000000000000000000000000000000600052600060045260246000fd5b30600052607381538281f3fe73000000000000000000000000000000000000000030146080604052600436106100355760003560e01c80631caab9a71461003a575b600080fd5b610054600480360381019061004f91906101fd565b61006a565b6040516100619190610239565b60405180910390f35b6000919050565b6000604051905090565b600080fd5b600080fd5b6000601f19601f8301169050919050565b7f4e487b7100000000000000000000000000000000000000000000000000000000600052604160045260246000fd5b6100ce82610085565b810181811067ffffffffffffffff821117156100ed576100ec610096565b5b80604052505050565b6000610100610071565b905061010c82826100c5565b919050565b600067ffffffffffffffff82111561012c5761012b610096565b5b602082029050919050565b600080fd5b6000819050919050565b61014f8161013c565b811461015a57600080fd5b50565b60008135905061016c81610146565b92915050565b600061018561018084610111565b6100f6565b9050806020840283018581111561019f5761019e610137565b5b835b818110156101c857806101b4888261015d565b8452602084019350506020810190506101a1565b5050509392505050565b600082601f8301126101e7576101e6610080565b5b60016101f4848285610172565b91505092915050565b6000602082840312156102135761021261007b565b5b6000610221848285016101d2565b91505092915050565b6102338161013c565b82525050565b600060208201905061024e600083018461022a565b9291505056fea26469706673582212202dc8dffdd585b73953b2fedd5f0b724d18b00adf198530f87d6f17cde56b53c764736f6c634300080a0033",
          "opcodes": "PUSH2 0x28A PUSH2 0x53 PUSH1 0xB DUP3 DUP3 DUP3 CODECOPY DUP1 MLOAD PUSH1 0x0 BYTE PUSH1 0x73 EQ PUSH2 0x46 JUMPI PUSH32 0x4E487B7100000000000000000000000000000000000000000000000000000000 PUSH1 0x0 MSTORE PUSH1 0x0 PUSH1 0x4 MSTORE PUSH1 0x24 PUSH1 0x0 REVERT JUMPDEST ADDRESS PUSH1 0x0 MSTORE PUSH1 0x73 DUP2 MSTORE8 DUP3 DUP2 RETURN INVALID PUSH20 0x0 ADDRESS EQ PUSH1 0x80 PUSH1 0x40 MSTORE PUSH1 0x4 CALLDATASIZE LT PUSH2 0x35 JUMPI PUSH1 0x0 CALLDATALOAD PUSH1 0xE0 SHR DUP1 PUSH4 0x1CAAB9A7 EQ PUSH2 0x3A JUMPI JUMPDEST PUSH1 0x0 DUP1 REVERT JUMPDEST PUSH2 0x54 PUSH1 0x4 DUP1 CALLDATASIZE SUB DUP2 ADD SWAP1 PUSH2 0x4F SWAP2 SWAP1 PUSH2 0x1FD JUMP JUMPDEST PUSH2 0x6A JUMP JUMPDEST PUSH1 0x40 MLOAD PUSH2 0x61 SWAP2 SWAP1 PUSH2 0x239 JUMP JUMPDEST PUSH1 0x40 MLOAD DUP1 SWAP2 SUB SWAP1 RETURN JUMPDEST PUSH1 0x0 SWAP2 SWAP1 POP JUMP JUMPDEST PUSH1 0x0 PUSH1 0x40 MLOAD SWAP1 POP SWAP1 JUMP JUMPDEST PUSH1 0x0 DUP1 REVERT JUMPDEST PUSH1 0x0 DUP1 REVERT JUMPDEST PUSH1 0x0 PUSH1 0x1F NOT PUSH1 0x1F DUP4 ADD AND SWAP1 POP SWAP2 SWAP1 POP JUMP JUMPDEST PUSH32 0x4E487B7100000000000000000000000000000000000000000000000000000000 PUSH1 0x0 MSTORE PUSH1 0x41 PUSH1 0x4 MSTORE PUSH1 0x24 PUSH1 0x0 REVERT JUMPDEST PUSH2 0xCE DUP3 PUSH2 0x85 JUMP JUMPDEST DUP2 ADD DUP2 DUP2 LT PUSH8 0xFFFFFFFFFFFFFFFF DUP3 GT OR ISZERO PUSH2 0xED JUMPI PUSH2 0xEC PUSH2 0x96 JUMP JUMPDEST JUMPDEST DUP1 PUSH1 0x40 MSTORE POP POP POP JUMP JUMPDEST PUSH1 0x0 PUSH2 0x100 PUSH2 0x71 JUMP JUMPDEST SWAP1 POP PUSH2 0x10C DUP3 DUP3 PUSH2 0xC5 JUMP JUMPDEST SWAP2 SWAP1 POP JUMP JUMPDEST PUSH1 0x0 PUSH8 0xFFFFFFFFFFFFFFFF DUP3 GT ISZERO PUSH2 0x12C JUMPI PUSH2 0x12B PUSH2 0x96 JUMP JUMPDEST JUMPDEST PUSH1 0x20 DUP3 MUL SWAP1 POP SWAP2 SWAP1 POP JUMP JUMPDEST PUSH1 0x0 DUP1 REVERT JUMPDEST PUSH1 0x0 DUP2 SWAP1 POP SWAP2 SWAP1 POP JUMP JUMPDEST PUSH2 0x14F DUP2 PUSH2 0x13C JUMP JUMPDEST DUP2 EQ PUSH2 0x15A JUMPI PUSH1 0x0 DUP1 REVERT JUMPDEST POP JUMP JUMPDEST PUSH1 0x0 DUP2 CALLDATALOAD SWAP1 POP PUSH2 0x16C DUP2 PUSH2 0x146 JUMP JUMPDEST SWAP3 SWAP2 POP POP JUMP JUMPDEST PUSH1 0x0 PUSH2 0x185 PUSH2 0x180 DUP5 PUSH2 0x111 JUMP JUMPDEST PUSH2 0xF6 JUMP JUMPDEST SWAP1 POP DUP1 PUSH1 0x20 DUP5 MUL DUP4 ADD DUP6 DUP2 GT ISZERO PUSH2 0x19F JUMPI PUSH2 0x19E PUSH2 0x137 JUMP JUMPDEST JUMPDEST DUP4 JUMPDEST DUP2 DUP2 LT ISZERO PUSH2 0x1C8 JUMPI DUP1 PUSH2 0x1B4 DUP9 DUP3 PUSH2 0x15D JUMP JUMPDEST DUP5 MSTORE PUSH1 0x20 DUP5 ADD SWAP4 POP POP PUSH1 0x20 DUP2 ADD SWAP1 POP PUSH2 0x1A1 JUMP JUMPDEST POP POP POP SWAP4 SWAP3 POP POP POP JUMP JUMPDEST PUSH1 0x0 DUP3 PUSH1 0x1F DUP4 ADD SLT PUSH2 0x1E7 JUMPI PUSH2 0x1E6 PUSH2 0x80 JUMP JUMPDEST JUMPDEST PUSH1 0x1 PUSH2 0x1F4 DUP5 DUP3 DUP6 PUSH2 0x172 JUMP JUMPDEST SWAP2 POP POP SWAP3 SWAP2 POP POP JUMP JUMPDEST PUSH1 0x0 PUSH1 0x20 DUP3 DUP5 SUB SLT ISZERO PUSH2 0x213 JUMPI PUSH2 0x212 PUSH2 0x7B JUMP JUMPDEST JUMPDEST PUSH1 0x0 PUSH2 0x221 DUP5 DUP3 DUP6 ADD PUSH2 0x1D2 JUMP JUMPDEST SWAP2 POP POP SWAP3 SWAP2 POP POP JUMP JUMPDEST PUSH2 0x233 DUP2 PUSH2 0x13C JUMP JUMPDEST DUP3 MSTORE POP POP JUMP JUMPDEST PUSH1 0x0 PUSH1 0x20 DUP3 ADD SWAP1 POP PUSH2 0x24E PUSH1 0x0 DUP4 ADD DUP5 PUSH2 0x22A JUMP JUMPDEST SWAP3 SWAP2 POP POP JUMP INVALID LOG2 PUSH5 0x6970667358 0x22 SLT KECCAK256 0x2D 0xC8 0xDF REVERT 0xD5 DUP6 0xB7 CODECOPY MSTORE8 0xB2 INVALID 0xDD 0x5F SIGNEXTEND PUSH19 0x4D18B00ADF198530F87D6F17CDE56B53C76473 PUSH16 0x6C634300080A00330000000000000000 "
        },
        "methodIdentifiers": {
          "poseidon(uint256[1])": "1caab9a7"
        }
      }
    }
  }
}